S019000050726F796563746F5F31333039323031392E73726563BE
S315000000003021FE1F85300000DD2B0000813000000E
S3150000001081300000813000008130000000000000C7
S315000000200000000000000000000000008130000019
S3150000003081300000000000008130000081300000A7
S31500000040FFFFFFFFFFFFFFFFFFFFFFFFFFFFFFFFBA
S31500000050FFFFFFFFFFFFFFFFFFFFFFFFFFFFFFFFAA
S31500000060FFFFFFFFFFFFFFFFFFFFFFFFFFFFFFFF9A
S31500000070FFFFFFFFFFFFFFFFFFFFFFFFFFFFFFFF8A
S31500000400FFFFFFFFFFFDFFFFFFFFFFFFFFFFFFFFF8
S31500000410FFFFFFFFFFFFFFFFFFFFFFFFFFFFFFFFE6
S31500000420FFFFFFFFFFFFFFFFFFFFFFFFFFFFFFFFD6
S31500000430FFFFFFFFFFFFFFFFFFFFFFFFFFFFFFFFC6
S31500000440FFFFFFFFFFFFFFFFFFFFFFFFFFFFFFFFB6
S31500000450FFFFFFFFFFFFFFFFFFFFFFFFFFFFFFFFA6
S31500000460FFFFFFFFFFFFFFFFFFFFFFFFFFFFFFFF96
S31500000470FFFFFFFFFFFFFFFFFFFFFFFFFFFFFFFF86
S31500000480FFFFFFFFFFFFFFFFFFFFFFFFFFFFFFFF76
S31500000490FFFFFFFFFFFFFFFFFFFFFFFFFFFFFFFF66
S315000004A0FFFFFFFFFFFFFFFFFFFFFFFFFFFFFFFF56
S315000004B0FFFFFFFFFFFFFFFFFFFFFFFFFFFFFFFF46
S315000004C0FFFFFFFFFFFFFFFFFFFFFFFFFFFFFFFF36
S315000004D0FFFFFFFFFFFFFFFFFFFFFFFFFFFFFFFF26
S315000004E0FFFFFFFFFFFFFFFFFFFFFFFFFFFFFFFF16
S315000004F0FFFFFFFFFFFFFFFFFFFFFFFFFFFFFFFF06
S3150000050020000000200001002F0000002F00010045
S315000005100C00010011000000300000003000010056
S31500000520240000002400010024000200240003002F
S31500000530240004002400050013000000170000003A
S315000005402300000021000000210001000700000038
S31500000550070001000700020007000300070004006F
S31500000560070005000700060007000700120000004C
S3150000057044000000080000000B00000041000000DD
S31500000580400000004000010004000000430000009D
S315000005902B0000002B000A002B000B002B000C0088
S315000005A02B000D002B0001002B0002002B00030086
S315000005B02B0004002B0005002B0006002B00070073
S315000005C02B0008002B0009000600000006000A00A8
S315000005D006000B0006000C0006000D0006000E00CB
S315000005E006000F00060001000600020006000300D8
S315000005F006000400060005000600060006000700C7
S31500000600060008000600090015000000150001009C
S3150000061015000200310000002A000000450000001D
S3150000062010000000030100000300000003000100A9
S315000006300F0000000D0000002D0000004200000029
S315000006402C0000002C0001002C0002002C000300EE
S31500000650320000002800000018000000140000000E
S31500000660140001001400020014000300140004002A
S31500000670140005001400060014000700140008000A
S3150000068014000900340000003400010016000000C8
S31500000690160001003500000036000000360001009B
S315000006A02200000033000000330100002900000092
S315000006B010B5054C237833B9044B13B10448AFF396
S315000006C000800123237010BDB000FE1F0000000053
S315000006D0943D0000084B10B51BB108480849AFF31C
S315000006E000800848036803B910BD074B002BFBD0F8
S315000006F0BDE81040184700BF00000000943D000010
S31500000700B400FE1F0800FE1F0000000070B4104C6D
S315000007102368020A9A4216D26568C0B200F1100632
S31500000720012355F8225003FA06F62E420BD069B182
S3150000073000EB0210A36853F82030C3F340030020F7
S315000007400B7070BC7047032070BC70471846FBE7FF
S315000007507800FE1F084B1A68000A904201D3032056
S31500000760704731B1DA684301043200209B580B8090
S3150000077070470120704700BF7800FE1F084B1A68BB
S31500000780000A904201D30320704739B1DA68430169
S31500000790043200209B581B0C0B80704701207047C9
S315000007A07800FE1F144A1368F0B4040A9C421DD256
S315000007B05768C5B205F11006012357F8244003FA1D
S315000007C006F6264212D0A1B1D468000A04344001CC
S315000007D003FA05F2005992B202EA1040904213BFA2
S315000007E0002000200B700870F0BC70470320F0BC9E
S315000007F070471846FBE700BF7800FE1F0C4B10B48D
S315000008001C68000AA04200D21AB903205DF8044B06
S315000008107047DB685DF8044B083303EB401022EAAF
S315000008200103114041EA034141600020704700BFC7
S315000008307800FE1F134BF0B41C68020AA2420AD2CB
S315000008405F68C5B205F11006012457F8222004FAA4
S3150000085006F6164202D10320F0BC70470129FAD8E9
S3150000086000F47F400AD0AC4024040021DB68083342
S3150000087003EBD0000C4344600020EDE7A94089B2A9
S315000008800024F3E77800FE1F40B101230421022271
S3150000089001704370C370827000207047012070475A
S315000008A0012901D9032070472C4BF0B51C68020AB8
S315000008B0A2424ED25D68C0B200F11006012455F87E
S315000008C02250B4402C4244D000EB02109C681D69B3
S315000008D054F8203000293ED043F00401204E0E404B
S315000008E0EFF31087012383F310881E4B1A8892B208
S315000008F022B94FF0400EEA7085F803E01A880132FB
S3150000090092B21A8087F31088CF0354F8202007D5B7
S31500000910154F22F480320F4044F8202044F820700E
S3150000092044F82060EFF31081012282F310881A88C0
S315000009300C4892B21AB10288013A92B202801B8820
S315000009409BB213B98022EB70EA7081F31088002005
S31500000950F0BD0320F0BD23F00401BFE77800FE1FC1
S31500000960D5FC011FCC00FE1FD5FC001F0AB90320D1
S3150000097070470B4B10B41C68000AA04203D3032037
S315000009805DF8044B7047DB6822EA01044001083336
S315000009900A4042EA0442C2505DF8044B0020704708
S315000009A07800FE1F0AB9032070470D4B70B41C680F
S315000009B0000AA04202D3032070BC70474001DD68E4
S315000009C02E582B5802EA01043443A4B261EA02020B
S315000009D01B0C22401B041A432A50002070BC70478F
S315000009E07800FE1F2DE9F041002839D009681E4D18
S315000009F0002701EBC000B8464FF0010E8C8800239B
S31500000A0035F81320A24218D00133032BF8D1083150
S31500000A108142F3D1FF43FFB2012002F001FB134AEA
S31500000A2092F8BB3448EA030808EA070782F8BB7461
S31500000A300120BDE8F04102F0C3BA0A6802F0B852DC
S31500000A40B2F1807F05D00EFA03F647EA0602D7B266
S31500000A50DAE70EFA03F248EA02085FFA88F8D3E703
S31500000A608046FF27D8E700BF0C34000000E00140B5
S31500000A7070B582B002AB002403F8044D0546184653
S31500000A800E4602F08BF89DF80430DB0702D40620F0
S31500000A9002B070BD202D02D9032002B070BD012E18
S31500000AA0FAD8084B1A69137805D02B4303F03003A4
S31500000AB020461370ECE703F0300323EA05052046D1
S31500000AC01570E5E77800FE1F002867D02DE9F84F7E
S31500000AD04368002B5FD00146804631F8040BFFF7D0
S31500000AE081FFB8F80030002B52D02D4CDFF8B4E06F
S31500000AF0A146002201204FF0400B4FF0800AD8F8A3
S31500000B000430DEF8107053F83260DEF8085003EB5C
S31500000B10C20399880B0AC9B201EB0313EFF3108CD9
S31500000B2080F31088218889B211B9F97087F803B06B
S31500000B302188013189B221808CF3108816F4803F18
S31500000B4055F8231007D021F4803126F4803C45F86F
S31500000B50231045F823C045F82360EFF3108180F396
S31500000B60108823889BB22BB1B9F80030013B9BB2A9
S31500000B70A9F8003023889BB213B9FB7087F803A04D
S31500000B8081F310880132B8F8003092B29342B6D899
S31500000B900020BDE8F88F0120BDE8F88F01207047DE
S31500000BA0CC00FE1F7800FE1F002832D04368002BC1
S31500000BB02FD0F0B587B006AC002309210193164A61
S31500000BC004F8141D154ED768029305460393049343
S31500000BD0059302A92046B8474FF00A0C029ABDF8C1
S31500000BE00C308DF804C002A9F2602046059A7260A6
S31500000BF03360B8470122029B8DF8052002A92046E2
S31500000C00B360B847029B33612846FFF75DFF07B024
S31500000C10F0BD0120704700BF9C3400007800FE1F25
S31500000C202DE9F041304C2268050A954284B003460E
S31500000C300CD26268C6B20F464FF0010806F11001E9
S31500000C4052F8252008FA01F1114203D1032004B01D
S31500000C50BDE8F08104A902AA41F80C2D4046ADF882
S31500000C600C300297ADF8008006EB0515FFF7BAFECB
S31500000C702069A268EFF3108488F310881B490B885B
S31500000C809BB213B94026C370C6700B8801339BB262
S31500000C900B8084F31088FC0352F8253007D523F423
S31500000CA0803327F4803442F8253042F8254042F854
S31500000CB02570EFF31082012383F310880B880B4C09
S31500000CC09BB25BB90B889BB213B98021C370C1700C
S31500000CD082F31088002004B0BDE8F0812388013B30
S31500000CE09BB22380EEE700BF7800FE1FCC00FE1FFC
S31500000CF0012901D9032070472C4BF0B51C68020A64
S31500000D00A2424ED25D68C0B200F11006012455F829
S31500000D102250B4402C4244D000EB02109C681D695E
S31500000D2054F8203001293ED023F00101204E0E4018
S31500000D30EFF31087012383F310881E4B1A8892B2B3
S31500000D4022B94FF0400EEA7085F803E01A880132A6
S31500000D5092B21A8087F31088CF0354F8202007D563
S31500000D60154F22F480320F4044F8202044F82070BA
S31500000D7044F82060EFF31081012282F310881A886C
S31500000D800C4892B21AB10288013A92B202801B88CC
S31500000D909BB213B98022EB70EA7081F310880020B1
S31500000DA0F0BD0320F0BD43F00101BFE77800FE1F50
S31500000DB0D5FC011FCC00FE1FD5FC001F024658B112
S31500000DC0064B07491B68002B08BF0B4600205968D5
S31500000DD003EB810313607047012070478C00FE1FF0
S31500000DE09C35000088B10A4B1B6863B15A6800F154
S31500000DF0100103EB820353F8042F40F8042B8842BA
S31500000E00F9D1002070471C2070470120704700BFB1
S31500000E108C00FE1F70B36AB3174BF0B51E681EB385
S31500000E20164B07781B68002404E00134B44203F132
S31500000E30080319D09D79BD42F7D193F805E045889E
S31500000E40B5EB9E0FF1D1DD7990F801E005F0070CC6
S31500000E50F445EAD1B1EBD50FE7D19B881470C3F303
S31500000E60090353800020F0BDDF21FF23117053805A
S31500000E700B20F0BD012070470401FE1FF43900006D
S31500000E8020B1034B1B6803600020704701207047A8
S31500000E90B434000070B42A4C216851B1234604F5DD
S31500000EA07F70002201E053F8041F83420A44FAD1FE
S31500000EB01AB100BE1D2070BC7047224D22482A6020
S31500000EC00368190CB1F5807F02D0002070BC704712
S31500000ED0196801390331F8D81C495E6A8E42F4D18B
S31500000EE02B6001686368486804EB830301EB8001AB
S31500000EF001F12300233301214FF47E4503E0013243
S31500000F0001310138013B25FA02F4E40707D5072A27
S31500000F1010D0082A07D01E780478A642C9D1102915
S31500000F20EDD10020D2E70478372CE8D01E78A6420F
S31500000F30E5D0BEE706781C78A642E0D2B9E700BF46
S31500000F409C3500008C00FE1F9CB17F4052374653F3
S31500000F5000285ED000295CD08B4B2DE9F0439A68BF
S31500000F6090F800C003EB82029478A44537D24FEA8A
S31500000F701C1802EB88060CF00F073589D2F804E03E
S31500000F8025FA07F919F0010F29D0072FB67A09D9E2
S31500000F9002EB88080CF0070798F80BC00CF00F0C52
S31500000FA066442D0ADFF8E481DFF8E4C118F807800B
S31500000FB0754F08EA050524091CF80550023402EBB2
S31500000FC08402AC1902EB440532F814206C78C2F3A3
S31500000FD00902250603EB820305D4002B4BD14FF4FF
S31500000FE0AF60BDE8F08317F8222045785208FDB1BE
S31500000FF04FF0020E012604271C78E40705F1FF35A1
S3150000100052D5052A00F2BE80DFE802F0332D211CFE
S315000010101A05012070479A781EFB0264033204EB1E
S315000010209202920013441A7854082246002DE3D106
S31500001030042A00F2A480DFE802F0636363503B00F9
S315000010400822EFE79A7817FB02629200EAE793F824
S3150000105004C09C7814FB0CF2D41C0CF1030204EBC4
S3150000106092029200DEE71A79033222F003020C3272
S31500001070D8E70C22D6E74478B4B9DC78C4F3031475
S315000010804C72DC780125C4F303048C728D80408891
S31500001090002843D137F822200EEB02220A609B7803
S315000010A0CB800872C86015E040F27950BDE8F08345
S315000010B0DA78C2F303124A72DA78C2F303028A724A
S315000010C05878C88000228A800A72CA605B680B6002
S315000010D08307E9D50020BDE8F083DA78C2F303126E
S315000010E04A72DA78C2F303028A725A78CA809A7808
S315000010F08A80043304200022CB6008720A60E9E784
S31500001100DC78C4F303144C72DC78C4F303048C72E9
S315000011101D79ACB28C804088844203D840F27A5064
S31500001120BDE8F083DC889E68012A04FB00640C603D
S315000011301CD0022A0AD09C785B78002243EA042459
S31500001140CC800A72CA60002CE8D0C3E71C18EA1CDF
S31500001150247BCC809D780D72920805FB002003EB62
S3150000116080030C33CB60002CD8D0B3E703440022B5
S315000011701C7BCC800A72CA60002CCFD0AAE7642000
S31500001180BDE8F08300224DE79C35000014340000D2
S315000011901C340000034B04301B6823F82010002089
S315000011A0704700BFD000FE1F034B021D1B680020C6
S315000011B023F82200704700BFD000FE1F034B1A68B9
S315000011C0137863F07F03137000207047D000FE1F72
S315000011D0034B1A68137803F07F03137000207047DF
S315000011E0D000FE1F20B1034B1B6803600020704730
S315000011F001207047D434000060B1012808D1094BA2
S315000012001B68002040214122187119711A7170471C
S3150000121001207047034B1B6840214122987099704A
S315000012209A707047D000FE1F002836D070B51C4952
S3150000123086B000230B220193029303930493059334
S315000012400546CB688DF8042001A802A998470446F4
S3150000125008B106B070BD134E029B336001A801F0C1
S3150000126011FE6B6873B130682346AA6812F8231022
S3150000127002EB83020431528820F821206A68013388
S315000012809A42F2D828780028E3D0326813780020F2
S3150000129063F07F03137006B070BD0120704700BF76
S315000012A09C340000D000FE1F094A0A4B12680A4807
S315000012B0916910B4D46919604FF400420021DC60D2
S315000012C0586059619A601A615DF8044B704700BF17
S315000012D0A800FE1F9000FE1F00127A00374B1B6805
S315000012E093F8283013F030023DD0102A0DD0202A72
S315000012F03AD0DFED337A334AF0EE676A67EEA67AC4
S31500001300FCEEE77AC2ED057A7047028D2E4902F0AF
S31500001310030231F8121000294CD05B0610B44AD5EE
S31500001320038D13F0100F0CBF03240024254A038DF0
S3150000133052F824005DF8044B07EE900AB8EE677A7F
S3150000134007EE901AB8EE676AC3F30523C7EE067A6E
S31500001350013306EE903AFAEEEF6A67EEA67AFCEEF5
S31500001360E77AC2ED057A704790F82B30174A9B0949
S3150000137032F813100029F6D0124A90F82B30D2ED2D
S31500001380037A03F01F03B8EE677A06EE903A07EE8B
S31500001390901AF8EE666AB8EE676AF7EE007A76EEAD
S315000013A0A76AC7EE067A67EEA67AFCEEE77AC2ED82
S315000013B0057A704770470324B8E700BFA800FE1FF0
S315000013C0000000009000FE1FE0340000D83400004A
S315000013D0F8B50D4B1B68064693F8205093F821701C
S315000013E000200C4601F01CFE96F81324E9B2BC401E
S315000013F00C4022EA010344EA030186F81314002094
S31500001400BDE8F84001F0DCBDA800FE1FF8B50D4BA5
S315000014101B68064693F8225093F8237000200C466A
S3150000142001F0FEFD96F88124E9B2BC400C4022EAA8
S31500001430010344EA030186F881140020BDE8F84060
S3150000144001F0BEBDA800FE1F38B505460C460020BB
S3150000145001F0E6FD052C0AD8DFE804F019242F0375
S315000014603A0E95F8323023F0010385F83230002029
S31500001470BDE8384001F0A4BD95F82A3023F00103F9
S3150000148085F82A300020BDE8384001F099BD95F86E
S31500001490363023F0010385F836300020BDE83840A9
S315000014A001F08EBD95F8383023F0010385F8383009
S315000014B00020BDE8384001F083BD95F8903423F054
S315000014C0010385F890340020BDE8384001F078BD6E
S315000014D095F8803423F0010385F880340020BDE8B8
S315000014E0384001F06DBD00BF38B505460C460020FA
S315000014F001F096FD052C0AD8DFE804F019242F0325
S315000015003A0E95F8323043F0010385F83230002068
S31500001510BDE8384001F054BD95F82A3043F0010388
S3150000152085F82A300020BDE8384001F049BD95F81D
S31500001530363043F0010385F836300020BDE83840E8
S3150000154001F03EBD95F8383043F0010385F8383098
S315000015500020BDE8384001F033BD95F8903443F0E3
S31500001560010385F890340020BDE8384001F028BD1D
S3150000157095F8803443F0010385F880340020BDE8F7
S31500001580384001F01DBD00BF03290ED0052907D044
S3150000159009B10020704790F83C0000F00100704748
S315000015A090F83C00C0F34010704790F83C00C0F340
S315000015B0C000704705292ED8DFE801F00A11181F70
S315000015C0260390F82A0000F0010080F00100704721
S315000015D090F8360000F0010080F00100704790F8A6
S315000015E0380000F0010080F00100704790F8900488
S315000015F000F0010080F00100704790F8320000F022
S31500001600010080F00100704790F8800400F00100AE
S3150000161080F0010070470020704700BF036A90F811
S315000016202630704738B5054600200C4601F0F8FC18
S3150000163095F8133404F0010123F0400343EA8111C5
S3150000164085F813140020BDE8384001F0B9BC00BF8E
S3150000165038B505460020144601F0E2FC95F8A220B4
S3150000166004F00F0422F00F02144385F8A240002074
S31500001670BDE8384001F0A4BC084B1B6893F828303D
S3150000168013F0300F04D104288CBF002001207047CE
S3150000169005288CBF00200120704700BFA800FE1F50
S315000016A006288CBF00200120704700BF90F8260056
S315000016B000F00700704700BF38B5054600200C460D
S315000016C001F0AEFC95F8261004F0070421F007019E
S315000016D00C4385F826400020BDE8384001F070BC78
S315000016E0074B1B6893F828305B0601D4032070472C
S315000016F0038D13F0100F0CBF03200020704700BFAE
S31500001700A800FE1F38B5044600200D4601F088FCEF
S31500001710238D032D0CBF23F0100343F01003238504
S315000017200020BDE8384001F04BBC00BF38B5224C64
S315000017302DED028B236893F8283003F03003102B2D
S315000017400546B0EE408A1CD0202B02D0BDEC028BA1
S3150000175038BD002001F064FCFCEEC87A95F82B1029
S3150000176017EE903A013B03F01F0221F01F031343CB
S3150000177085F82B30BDEC028B0020BDE8384001F027
S315000017801FBC002001F04CFC78EE087A2A8DFCEE96
S31500001790E77A22F47C5217EE903A013B03F03F03BE
S315000017A042EA03232B85002001F00AFC236893F804
S315000017B0283003F03003C7E7A800FE1F70B51E4CA3
S315000017C0236893F8283003F03003102B82B00546C7
S315000017D019D0202B01D002B070BD184B002033F871
S315000017E0114001F01DFC95F82B3004F0030403F0C2
S315000017F03F0343EA8413002085F82B3002B0BDE88E
S31500001800704001F0DDBB0E4B0191002033F81160F2
S3150000181001F006FC2B8D06F0030623F003031E439E
S315000018202E85002001F0CCFB2368019993F828301F
S3150000183003F03003CDE700BFA800FE1FF034000020
S31500001840E834000038B51A4B1A6892F8293092F835
S315000018502A200546180748BF08784FF0000448BFFD
S3150000186060F30E34D80644BF487860F30A2498061D
S3150000187044BF887860F30614580644BFC87860F3FE
S315000018800204D20744BF0A7962F312441B0644BF1E
S315000018904B7963F31E748B79002063F31A6401F0AD
S315000018A0BFFB2C620020BDE8384001F089BB00BFB9
S315000018B0A800FE1F036AC3F302330B70036AC3F367
S315000018C002234B70036AC3F302138B70036A03F09F
S315000018D00703CB70036AC3F302430B71036AC3F3B6
S315000018E002734B71036AC3F302638B71704700BFC7
S315000018F0144B42781B6893F8241091421ED393F838
S31500001900262090ED017A07EE902AF8EE677AF4EE3B
S31500001910C77AF1EE10FA11D493F8253007EE903A13
S31500001920F8EE677AB4EEE77AF1EE10FA06D40078AC
S31500001930032805D0B0FA80F04009704700207047B0
S3150000194001207047A800FE1F062921D8DFE801F014
S31500001950080C1014181C0400006AC0F302607047DB
S31500001960006AC0F302307047006AC0F30220704775
S31500001970006AC0F302107047006A00F00700704763
S31500001980006AC0F302407047006AC0F302707047F5
S315000019900020704710B50446FFF7D6FF94F82630AE
S315000019A0034A03F0070352F8233023FA00F010BD70
S315000019B09000FE1F024B53F82000C840704700BF3E
S315000019C09000FE1F30B5044683B001200D4601F09D
S315000019D027FB02A8002300F8013D00F0BDFF94F8A4
S315000019E0AA30D806FBD494F8A030D906F7D494F8D8
S315000019F0AA3023F0010384F8AA3094F8AA30DA0654
S31500001A00FBD494F8A030DB06F7D4042D2BD094F841
S31500001A10A02005F0030322F00302134384F8A0304C
S31500001A2094F8AA30D806FBD494F8A030D906F7D497
S31500001A3094F8AA30042D0CBF43F0010323F00103F0
S31500001A4084F8AA3094F8AA30DA06FBD494F8A030C9
S31500001A50DB06F7D49DF8070000F092FF012001F0A5
S31500001A60AFFA03B030BD94F8A03043F0030384F816
S31500001A70A030D5E790F8AA30DB075ABF90F8A0004F
S31500001A8000F003000420704710B50446002001F062
S31500001A90C7FA94F8403063F07F0384F8403094F836
S31500001AA0403043F0010384F840300020BDE8104088
S31500001AB001F086BA10B50446002001F0B1FA94F898
S31500001AC0403023F0010384F8403094F8403003F0AE
S31500001AD07F0384F840300020BDE8104001F070BA62
S31500001AE090F84000C009704790F8410000F00100EE
S31500001AF0704700BF38B590F8413013F0010401D1AA
S31500001B00002038BD0546002001F08AFA95F84130DC
S31500001B1023F0010385F84130002001F051FA2046F8
S31500001B2038BD00BF38B5054600200C4601F078FAEE
S31500001B3095F8301004F0010421F001010C4385F8FA
S31500001B4030400020BDE8384001F03ABA10B50446EE
S31500001B50002001F065FA94F8523043F0010384F84E
S31500001B6052300020BDE8104001F02ABA10B50446F4
S31500001B70002001F055FA94F8523023F0010384F85E
S31500001B8052300020BDE8104001F01ABA70B5044684
S31500001B9000200D46164601F043FA94F83E3003F055
S31500001BA07F0384F83E3094F83E3006F0070223F0B7
S31500001BB0700343EA021284F83E2094F83E1005F0C2
S31500001BC0070521F007010D4384F83E500020BDE8CB
S31500001BD0704001F0F5B900BF10B50446002001F0D1
S31500001BE01FFA94F83E3063F07F0384F83E300020FD
S31500001BF0BDE8104001F0E4B910B50446002001F03C
S31500001C000FFA94F83E3003F07F0384F83E3000204C
S31500001C10BDE8104001F0D4B910B50446002001F02B
S31500001C20FFF994F8533043F0010384F85330002051
S31500001C30BDE8104001F0C4B910B50446002001F01B
S31500001C40EFF994F8533023F0010384F85330002061
S31500001C50BDE8104001F0B4B938B5054600200C4681
S31500001C6001F0DEF995F8243004F0070123F0700343
S31500001C7043EA011185F824100020BDE8384001F040
S31500001C809FB900BF70B40F4B0F4C1D68002119603F
S31500001C9094F823200138B0F1807FD2B20DD2F0261D
S31500001CA0072502F0F002586084F8236099601D60F1
S31500001CB084F82320012070BC70471D60084670BC64
S31500001CC0704700BF10E000E000ED00E090F85030F3
S31500001CD001F00F0123F00F03194380F850107047ED
S31500001CE090F8500000F00F00704700BF90F8503099
S31500001CF063F07F0380F85030704700BF90F8503093
S31500001D0003F07F0380F85030704700BF90F8500012
S31500001D10C009704790F8D13021B123F0010380F853
S31500001D20D130704743F0010380F8D130704700BFCF
S31500001D3090F8D13063F07F0380F8D130704700BF50
S31500001D4090F8D13003F07F0380F8D130704700BFA0
S31500001D5090F8D100C009704738B5054600200C46FA
S31500001D6001F05EF995F8A51004F0070421F00701CB
S31500001D700C4385F8A5400020BDE8384001F020B9A5
S31500001D8020B1034B1B680360002070470120704799
S31500001D906C35000030B52A4C87B0204600F004FFB1
S31500001DA006A8284B002503220095DB6800F8182DAD
S31500001DB002A90295039504950595984702986060D7
S31500001DC04FF6FF7329460193FFF7F4FB28B910E09D
S31500001DD0019B43B1019B013B019360680021FFF722
S31500001DE0D3FB0028F4D0019B1BB94FF4CD7007B08C
S31500001DF030BD60680621FFF7AFFF4FF6FF73019312
S31500001E00FFF752FA60680421FFF76EFB04E0019BBE
S31500001E1043B1019B013B019360680421FFF7CAFBB4
S31500001E200028F4D1019B002BDFD060680421052235
S31500001E30FFF7F4FB60680021FFF7E8FA0020D6E719
S31500001E40A800FE1F9C34000070B169B170B5074E42
S31500001E50044670680D46FFF729FC29462070706815
S31500001E60FFF728FD002070BD01207047A800FE1F67
S31500001E7070B582B0002940D0054600283AD0344CCF
S31500001E806068FFF7F7FD0428064633D060686946A8
S31500001E90FFF710FD23689A680AB1032E37D0DA6877
S31500001EA0F2B1022E1CD193F829205969160733D4B2
S31500001EB0D00638D496063BD450063ED4120603D537
S31500001EC09DF805208A422BD393F82A30DB0703D5E9
S31500001ED09DF804308B4223D39DF806308B421FD3E6
S31500001EE02946012000F072FE6068FFF7CDFD002054
S31500001EF002B070BD012002B070BD154D6868FFF7D5
S31500001F00F3FD0446F0B14FF4CB7002B070BD93F808
S31500001F10292019691007CBD59DF800008842C7D241
S31500001F20052002B070BD9DF801008842C2D2F7E7D5
S31500001F309DF802008842BFD2F2E79DF8030088426E
S31500001F40BCD2EDE76868FFF7B5FD2046D3E700BFD2
S31500001F50A800FE1F38B5124C6068FFF7C5FD78B1C2
S31500001F606068FFF7A3FB236893F8283013F0300F5F
S31500001F70054603D05B0608D405280DD0032D0BD0EB
S31500001F806068FFF7B7FD002038BD6068FFF7A8FB63
S31500001F90052DF3D10328F3D140F2971038BD00BFC9
S31500001FA0A800FE1F08B5034B01465868FFF7BAFDA7
S31500001FB0002008BDA800FE1F08B5034B5868FFF7B0
S31500001FC0C5FD002008BD00BFA800FE1F08B5034BD5
S31500001FD05868FFF7CBFD002008BD00BFA800FE1F14
S31500001FE008B5044B0A4601465868FFF7CFFD0020A6
S31500001FF008BD00BFA800FE1F08B5034B5868FFF7D1
S31500002000EBFD002008BD00BFA800FE1F08B5034B6E
S315000020105868FFF7F1FD002008BD00BFA800FE1FAD
S3150000202038B50446FFF728FB08B9032038BD631E00
S31500002030012B11D9042C0FD02CB1032C03D0052C65
S3150000204001D0002038BD114D21466868FFF7B2FA6D
S3150000205078B94FF4C87038BD0C4B21465868FFF765
S31500002060A9FA40F29113002814BF18464FF4C8701D
S3150000207038BD68682146FFF787FA40F293130028B7
S315000020800CBF18464FF4C97038BD00BFA800FE1F2C
S3150000209070B506464FF6FE7440F2931501E0013C1A
S315000020A00CD03046FFF7BCFFA842F8D038B16FF429
S315000020B0C873C318022B38BF002070BD284670BDF8
S315000020C070B582B00D460446FFF7D6FA10B9032064
S315000020D002B070BD624E052C2146706815D0FFF720
S315000020E069FA18B140F2911002B070BD012C55D9B1
S315000020F0032C23D0631E012B63D9042C2CD0002C77
S3150000210059D0032C1FD00020E2E7FFF753FA00282E
S315000021104BD1002D5BD07068FFF7C8FA0528E1D0D7
S315000021202846FFF7E5FB0028D1D070682978FFF72D
S3150000213041FA002861D14FF4CA70C9E77068FFF709
S3150000214099FC04282FD070682146FFF71DFA002855
S315000021503FD040F29310BBE74FF6FF7321467068FD
S315000021600193FFF727FA3E4B0146002841D07068DD
S315000021700421FFF769F904E0019B43B1019B013B90
S31500002180019370680421FFF715FA0028F4D0019B2B
S31500002190002B0CBF4FF4CD70002099E77068FFF755
S315000021A069FC0428A6D1052092E77068FFF796F827
S315000021B040F291108CE770682146FFF7E5F9002898
S315000021C0C7D170682146FFF73FF9002080E701205C
S315000021D07EE73368706893F82710FFF7F9F87068A0
S315000021E00021FFF71FFA706803210922FFF730FA72
S315000021F0E7E75868FFF70AF9B9E721467068FFF77D
S31500002200C3F90028A5D1336893F828305B0603D5B7
S3150000221070682978FFF776FA69787068104CFFF7CE
S31500002220CDFA95ED010A7068FFF780FA7068FFF73E
S3150000223055F8336893F82810052001F00F01FFF7D1
S31500002240B9FB33685B68984288BF0021606898BF15
S315000022500121FFF7B7FB70680521FFF7F5F852E794
S31500002260A800FE1F70B582B00446FFF705FA10B944
S31500002270032002B070BD2C4D6868FFF717FA844240
S315000022802BD0052824D0012C2AD06868264E21465A
S31500002290FFF790F9D0B1022C14D0042C29D01CB130
S315000022A0032C01D0052C11D168681F4D2146FFF77C
S315000022B06BF938B940F29310DBE770682146FFF7F7
S315000022C079F918B168682146FFF70EF90020D0E7C2
S315000022D06868FFF705FAA042D5D140F29110C8E729
S315000022E06868114EFFF7FCFB0028E6D040F2951017
S315000022F0BFE770682146FFF7F7F84FF6FF730193C3
S3150000230004E0019B43B1019B013B019368680421F2
S31500002310FFF750F90028F4D1019B002B0CBF4FF4B6
S31500002320CD700020A5E700BFA800FE1F01280FD032
S31500002330022801D00020704708B508460021FFF7A3
S31500002340BFFE40B140F29113984208BF002008BD7D
S315000023500846FFF787BF002008BD00BFF0B587B06D
S315000023600C460546FFF788F910B9032007B0F0BD03
S3150000237064B3694E326892F82930190720D5277858
S31500002380A079B842F1D861788F42EED894F803E08C
S31500002390BE45EAD88842E8D823F07F0303F0FF0160
S315000023A013B163798342E0D392F82A30DF0702D56E
S315000023B023798342D9D3042D13D148B10520D5E71B
S315000023C06178E0788842D0D8A079E3E70120CDE7AC
S315000023D063790BB10029F1D17068FFF781FB002802
S315000023E0ECD170684C4F0021FFF7ECFA0023A1797D
S315000023F08DF8083028468DF81430FFF7DBFA0621F1
S3150000240003907068FFF7C6FA049002A800F034FB48
S315000024100028ABD17868FFF749F9854204D07DB32F
S31500002420032D2DD0052D2BD070683B4F6946FFF745
S3150000243041FA9DF80620A3799A422AD22146786865
S31500002440FFF700FA78682946FFF736F900F004FB33
S31500002450324B042D186025D0022D33D0012D3AD0F1
S31500002460032D47D0052D40D070680621FFF792FA5C
S315000024700123049002A88DF8083000F0FDFA75E7F4
S3150000248070682946FFF780F80028CDD140F29310F6
S315000024906CE778682946FFF70FF978682146FFF759
S315000024A0D1F9D3E733681C4A93F82810090617D4E4
S315000024B09A685AB95B68002BD6D070680121FFF77D
S315000024C081FAD1E733689A68002AF3D0706803214D
S315000024D0FFF778FAC8E733685B68002BC4D0ECE7EF
S315000024E050682946FFF76EFABEE733685B68984284
S315000024F0BAD8E2E733685A68904201D9002AB3D1C4
S315000025009B68984204D9002BAED0002ADED0D4E7CF
S31500002510002BA9D0DAE700BFA800FE1F1C01FE1F92
S3150000252000287DD02DE9F047054686B006A8002391
S315000025302F7800F8113D04A98DF810308DF8113070
S315000025408DF812308DF813308DF814308DF8153063
S315000025508DF81630FFF778FC95F815E0EE7C297DAE
S31500002560EA7DAB7D2C7E8DF808E038468DF80A6052
S315000025708DF809108DF80B208DF80C308DF80D4074
S31500002580FFF77AF818B9032006B0BDE8F0872B7874
S3150000259006AA134413F8103C012BF4D0022C41D0A8
S315000025A0DFF8E480D8F8003093F8283013F0300FC5
S315000025B014BF06260526002440F2911905F1040AE7
S315000025C0052CE1B248D002AB185DFFF7AFFE08B1AB
S315000025D04845D9D10134B442F2D13846FFF758FD07
S315000025E00028D1D105F10C013846FFF7B7FE0028C7
S315000025F0CAD19DF80740A74210D006AB234413F872
S31500002600100C012822D0D8F80400FFF769F806ABB1
S315000026100344014613F8100C012810D00020B3E73C
S31500002620012070472879FFF727F80028ABD02B79CF
S3150000263006AA134413F8103C012BB1D1A3E7052CCD
S31500002640ECD18F42EAD0FFF771FE9DE72146FFF7F6
S315000026506DFE0028D7D097E79DF80D30022BB2D13A
S3150000266028790021FFF72CFD08B148458CD128793F
S31500002670FFF70EFD5146002886D10520FFF720FD05
S315000026800028A7D0A4E700BFA800FE1F51B170B56F
S3150000269000250D600C460646FFF702F828B903230D
S315000026A0184670BD012318467047044B31465868DA
S315000026B0FFF770F92B462060184670BDA800FE1F74
S315000026C038B5114D2B6893F8290010F0010000D1A0
S315000026D038BD002000F0A4FC68680C4CFFF706FB30
S315000026E001E06CB1013C6868FFF710FB0028F8D0E8
S315000026F0002000F065FC002C0CBF1420002038BD23
S3150000270000F05EFC1420E3E7A800FE1FFFFF0F00A9
S3150000271038B5114D2B6893F8290010F0010000D14F
S3150000272038BD002000F07CFC68680C4CFFF7E6FA28
S3150000273001E064B1013C6868FFF7E8FA0028F8D1C7
S3150000274000F03EFC002C0CBF1420002038BD2046B3
S3150000275000F036FC1420E3E7A800FE1FFFFF0F0081
S31500002760F8B51C4D2B6893F8293013F0010324D0DB
S31500002770194B1E5CFF2E01D10320F8BD002000F08E
S315000027804FFC6868154CFFF7C1FA0746FFF7C0FF14
S3150000279068683146FFF79AFA01E09CB1013C686827
S315000027A0FFF79EFA8642F8D14FB9002000F008FCE8
S315000027B0002C0CBF14200020F8BD1846F8BDFFF70A
S315000027C07FFFF2E7002FFAD1384600F0F9FB14201C
S315000027D0F8BD00BFA800FE1F64350000FFFF0F0014
S315000027E008B5002000F01CFC034B5868FFF7A0FA60
S315000027F0002000F0E5FB08BDA800FE1F08B5054B4C
S315000028001B6893F82A309B0701D5FFF7E9FF0020E4
S3150000281008BD00BFA800FE1F08B5002000F000FCA0
S31500002820034B5868FFF78CFA002000F0C9FB08BD7F
S31500002830A800FE1F08B5054B1B6893F82A309B07B6
S3150000284001D5FFF7E9FF002008BD00BFA800FE1F65
S3150000285070B5164D2B6893F82A3003F002031BB3AC
S31500002860032802D008B1032070BD0446002000F002
S31500002870D7FB6868FFF76CFA2B6893F82A309A073B
S31500002880064601D5FFF7C8FF6868084D2146FFF7E1
S3150000289041FA36B12B6893F82A309B0701D5FFF72A
S315000028A09FFF002000F08CFB002070BDA800FE1FDB
S315000028B008B5054B1A6892F82920920702D5586880
S315000028C0FFF7AAF9002008BDA800FE1F08B5054BB2
S315000028D01A6892F82920920702D55868FFF7ACF9D2
S315000028E0002008BDA800FE1F08B5064B1A6892F81E
S315000028F02920520703D501465868FFF7ADF9002095
S3150000290008BD00BFA800FE1F08B90320704738B5F0
S315000029100D46044600F0A0F807EE900AF8EE676A46
S31500002920F7EE007AC7EEA66A07EE905A07EE104A4F
S31500002930F8EE677AB8EE477A66EEA77AC7EE277A98
S31500002940FCEEE77A17EE900AFFF79CF900280CBF19
S315000029501220002038BD00BF68B1084AB2F8003125
S3150000296003F00103037092F800316FF3000382F85D
S315000029700031002070470120704700BF00C00140B1
S31500002980104991F8043143F0010381F80431B1F89C
S315000029900431DB070CD54FF0FF3300E033B1B1F85B
S315000029A00421D20703F1FF33F8D40BB91420704782
S315000029B0044A92F8003160F3000382F800310020E7
S315000029C0704700BF00C0014070B5214D82B02B6832
S315000029D098470120FFF7D4FF0021AE680320B047D7
S315000029E001211C4AEC698DF80110032301928DF830
S315000029F000300320A047B0F5C97FFAD1694605200B
S31500002A00B0470520A047B0F5C97FFAD100220124BE
S31500002A10022369468DF806208DF801308DF80230C4
S31500002A208DF805308DF800402B698DF803408DF840
S31500002A300440052098472B6E04209847AB6A204631
S31500002A409847EB6A9847AB6D984702B070BD00BFD8
S31500002A50F83400000000A04100B583B002A90023AD
S31500002A6041F8043D034B06209B699847019803B043
S31500002A705DF804FBF8340000037870B423B1012B31
S31500002A803CD0002070BC704742683E498A426BD9F0
S31500002A903D4B3E4EF1251D71197A41F00401197224
S31500002AA0197A41F008011972197A41F00101197277
S31500002AB0197AF02441F00201B24219721C7105D94B
S31500002AC01D71197A41F0100119721C71304B314990
S31500002AD09A4294BF0123022303731C4691F81C31CA
S31500002AE003F00703A3423FBF91F81C3123F007030D
S31500002AF0234381F81C310378012BC2D18368214A14
S31500002B0093423BD8204BF1221A711A7A22F0040222
S31500002B101A721A7A22F008021A721A7A22F001023E
S31500002B201A721A7AF02122F002021A721971164BE1
S31500002B30F1221A711A7AF02122F010021A72197112
S31500002B401449037B91F81C2102F00702934298D0A6
S31500002B5091F81C2103F0070322F00702134381F8C2
S31500002B601C31002070BC70470B498A42AED8094A16
S31500002B70037392F81C31002070BC7047034A9342DD
S31500002B80DED8D4E7000E27070020004000C2EB0B7A
S31500002B900068890900C0014000B4C404037843F00A
S31500002BA003030370704700BF014B0360704700BF0B
S31500002BB070350000044B002103F1300243F8041B7A
S31500002BC09342FBD1704700BFD400FE1F024B43F86F
S31500002BD020100020704700BFD400FE1F08B57A4BB6
S31500002BE0B3F84031D90700F1C180774BB3F84031D3
S31500002BF09A0700F1B080744BB3F840315B0700F1DF
S31500002C009F80714BB3F84031180700F18E806E4BF0
S31500002C10B3F84031D9067CD46B4BB3F84001C0F30E
S31500002C208010002869D1684BB3F840311A0658D491
S31500002C30654BB3F84031DB0547D4634BB3F84031FD
S31500002C40980536D4604BB3F84031590524D45E4B11
S31500002C50B3F840311A0512D45B4BB3F84031DB04AC
S31500002C6000D408BD594BDB6A002B40F0AA80564AB7
S31500002C70B2F8303143F48053A2F8303108BD534BDB
S31500002C809B6A002B40F09A804F4AB2F8303143F4E9
S31500002C900063A2F83031DFE74C4B5B6A002B40F053
S31500002CA08A80494AB2F8303143F48063A2F8303161
S31500002CB0CDE7464B1B6A002B7AD1434AB2F8303136
S31500002CC043F40073A2F83031BCE7404BDB69002BBC
S31500002CD06BD13D4AB2F8303143F48073A2F83031FB
S31500002CE0ABE73A4B1B68002B5CD1374AB2F8303160
S31500002CF043F08003A2F830319AE7344B5B68002B2F
S31500002D004ED1314AB2F8303143F04003A2F83031A7
S31500002D1089E72E4B9B69002B3FD12B4AB2F8303105
S31500002D2043F01003A2F8303176E7284B5B698BBB82
S31500002D30254AB2F8303143F00803A2F8303166E78D
S31500002D40224B1B691BBB204AB2F8303143F0040307
S31500002D50A2F8303155E71D4B9B68ABB91A4AB2F859
S31500002D60303143F00203A2F8303144E7174BDB68F9
S31500002D703BB9154AB2F8303143F00103A2F83031BD
S31500002D8033E703209847F4E702209847E6E7042054
S31500002D909847D8E705209847CAE706209847BCE732
S31500002DA09847AEE7002098479FE70720984790E7A7
S31500002DB00820984781E70920984772E70A20984734
S31500002DC062E70B20984752E700600040D400FE1FE0
S31500002DD00278452A2BD8294B9B5CFF2B25D0F0B4D3
S31500002DE003F020064788407806F0FF0403F01F052D
S31500002DF0FEB101242B2A04FA05F634D0332A01D178
S31500002E00012836D09B091E4A52F8233041BBEFF306
S31500002E101082012181F31088196821EA06011960E0
S31500002E2082F310880020F0BC704703207047012011
S31500002E307047134E38449B092D1A012256F8233049
S31500002E4002FA05F60029E2D0EFF3108082F310882B
S31500002E5019683143196080F310882046F0BC70472A
S31500002E600320F0BC7047072FCCD9013504FA05F6CC
S31500002E70C8E76A1C00FA02F6C4E700BFAC390000D6
S31500002E809C3900000021FFF7A3BF00BFA0F101009D
S31500002E900028FBD1704700BF2DE9D04301FB00F4A9
S31500002EA0FFF7DAFD4FF47A71A4FB018900274FF092
S31500002EB0FF364F4508BF46450C4BB3FBF0F005D334
S31500002EC0B8FBF0F0800860B9BDE8D0838000B4FBA1
S31500002ED0F0F0A0FB01018F4208BF8642F3D24FF00B
S31500002EE0FF30BDE8D043FFF7D1BF00BF00CA9A3B11
S31500002EF00B4A0C4B10B49B1A0B4CDB08236063B1D6
S31500002F000A4800219388C3F3090340F8043F236865
S31500002F1001318B4202F10802F4D85DF8044B704788
S31500002F2000050000000500000401FE1FFC620040D1
S31500002F300F4B10B41C687CB10E4B00681A681368FE
S31500002F40984218BF002304D109E052F8041F8142B9
S31500002F5006D00133A342F8D15DF8044B7047002335
S31500002F60054A12680021D1545DF8044B704700BF32
S31500002F700801FE1F0C01FE1F1001FE1F38B50A4C8A
S31500002F800A4D0B480B490C4B0C4A04602D1BAD082F
S31500002F900D601A603DB104EB850520460434FFF749
S31500002FA0C7FFAC42F9D138BD00050000B0060000ED
S31500002FB00C01FE1F0801FE1F1001FE1F0C00FE1F64
S31500002FC0EFF31081012383F31088124B33F810209E
S31500002FD092B22AB133F81020013A92B223F81020A7
S31500002FE033F810309BB293B910B40B4A0B4CB2F8BD
S31500002FF0FE3334F810009BB243F4254323EA000362
S31500003000A2F8FE3381F310885DF8044B704781F314
S31500003010108870471401FE1F00E00140F8390000D7
S3150000302030B4EFF31084012383F310880D4A32F88D
S3150000303010309BB25BB90C4D0C49B5F8FE3331F834
S3150000304010109BB243F425430B43A5F8FE3332F828
S31500003050103001339BB222F8103084F3108830BC54
S31500003060704700BF1401FE1F00E00140F839000060
S31500003070024B00221A805A809A8070471401FE1F64
S3150000308000BE704708B500F005F800F05DF9FEE7F0
S31500003090704700BF284A38B5D2F8883043F4700329
S315000030A0C2F888300020FFF7F3FFFFF783FD234BBC
S315000030B01B689847FFF7DCFFFFF786FC204A214B89
S315000030C021481B68002414809847204A204B9B1AED
S315000030D005D01344214603F8011D9A42FBD11D4831
S315000030E01D4BC01A07D01D4A184412F8011B03F8DD
S315000030F0011B8342F9D1FFF7AFFC194C194B1A4D4E
S3150000310018602D1B0120FFF7C3FF032DC8BF2D1923
S3150000311004DD54F8043B9847AC42FAD1FFF72EFF82
S31500003120FFF7E6FE114B12481B6898470020BDE8E2
S31500003130384000F01FB800BF00ED00E09C340000EE
S31500003140CC00FE1FD03300000C3A0000B000FE1F7A
S315000031502C01FE1F7800FE1F0000FE1F983D000098
S315000031600000FE1F1C01FE1F0400FE1FB8340000F5
S31500003170003A000000F044B882B04FF0C843002186
S315000031800091009A1A7D61F300021A751A8DD0B16A
S31500003190202161F30F221A851A8D4FF0C04142F0AB
S315000031A080021A850A68009240F6FF72194601925B
S315000031B004E0019B013B0193019A12B18A6A52060F
S315000031C0F7D502B070474FF0C04142F47F421A85EE
S315000031D00A6800921A8D60F3C7121A850A6800926F
S315000031E040F6FF711A46019105E0019B013B0193F0
S315000031F0019B002BE5D0936A5B06F6D402B07047BC
S31500003200F8B54D490A684FF0C844002322F0400241
S3150000321010200A602063A36123626363C4F8043844
S31500003220227A63F304022272237DFF2243F0010314
S3150000323023752261237D662243F0010323752261F3
S31500003240237D992243F0010323752261237D43F0F8
S315000032500103237501212320FFF71EFE9F2323610F
S31500003260364B22691A7022695A702169227D99703B
S3150000327042F0010222751A78EF2A04D000221A7051
S315000032805A709A70F8BD5A78402AF7D19A78172A58
S31500003290F4D1052020612A4923690B70227D294B30
S315000032A042F0010235262275266122691A70227DB6
S315000032B042F001022275228D042565F30302228560
S315000032C02279502765F3030222712761227D42F09D
S315000032D0010222751A78012742F002021A7027614C
S315000032E00A7822611A782261227D3A432275256185
S315000032F0227D3A432275228860F3020222802061F1
S3150000330022690A70227D3A432275266122691A7063
S31500003310237D3B432375238843F040032380A36921
S31500003320DB074FF0C845FAD40120FFF725FF2B7DB8
S315000033306FF300032B75F8BD007004402001FE1FDB
S315000033402401FE1F2801FE1F08B500F003F8002027
S3150000335008BD00BF704700BF4275696C742077696D
S3150000336074682052656E657361732053796E657259
S3150000337067792028544D2920536F667477617265EA
S31500003380205061636B6167652076657273696F6E45
S3150000339020312E342E302B6275696C642E353964DB
S315000033A0646563366437633861000000312E342E5D
S315000033B03000000000000401F8B500BFF8BC08BCEE
S315000033C09E467047F8B500BFF8BC08BC9E467047DD
S315000033D0A90B0000C90A0000210C0000A10800008A
S315000033E0A507000035080000710A00000D0700005F
S315000033F0F10C0000A50900007D070000FD07000094
S31500003400550700006D090000890800000204030446
S315000034100404FFFF000103070F1F3F7F00010102A5
S315000034200102020301020203020303040102020372
S315000034300203030402030304030404050102020356
S315000034400203030402030304030404050203030442
S31500003450030404050304040504050506010202032A
S315000034600203030402030304030404050203030422
S315000034700304040503040405040505060203030406
S3150000348003040405030404050405050603040405F2
S31500003490040505060405050605060607950E000043
S315000034A0BD0D0000E50D0000510F0000150E0000D7
S315000034B0810E00000401030129120000F911000029
S315000034C095110000A9110000BD110000D1110000E6
S315000034D0E511000003010201010002000400FFFFE4
S315000034E0010002000300FFFF000001000200FFFFD1
S315000034F00000010000000200951D000021250000CB
S31500003500C1200000652200005D230000491E000066
S315000035108D26000021200000711E0000551F0000AE
S31500003520A51F0000B91F0000CD1F0000E11F00000D
S31500003530F91F00000D20000061270000C1260000D1
S315000035401127000051280000FD2700003528000043
S31500003550B1280000CD280000E92800000929000054
S31500003560811D000004FF000201FFFFFF09010301A6
S3150000357040420F000000000040420F000000000023
S315000035800400000002000000002D310100366E012B
S3150000359030040201020A1E00D0FE010002000310E0
S315000035A0040000001C00000013000000030E0010C1
S315000035B0FFFFFFFFFFFFFFFFFFFFFFFFFFFFFFFF15
S315000035C05237465337473237483341303143464303
S315000035D0575331343431413130300000000000009F
S315000035E002B06400F000000001000810F3E0BFB66E
S315000035F0057933498B43F24F1693A05D1E7A1DD889
S31500003600700D7A8242786A5EC35C0B190400501111
S3150000361000000040FFFF0008FFC110081FFF1B0548
S315000036207F0028073F002F063E8047804C806A00B7
S3150000363064806B00820056806E00BD80B08083007F
S315000036406F005B807000720071007300740075007B
S315000036508A8086808D80CF8076006C006D00B58074
S315000036607B007A007C00A08077007800790090804B
S315000036709A80978084009D80A3807D00D580D88025
S31500003680A6808500AD80A980DE807E007F00800058
S31500003690810000000607021000000000FFFF000086
S315000036A0002000000001000000000100FFFF3F00B5
S315000036B00080000000010000060701100000104015
S315000036C0FFFF104040000000040000000A00041044
S315000036D0070B0B0F0000FE1FFFFFFF1F000000205F
S315000036E0FFFF032000000420FFFF072000E00F205B
S315000036F0FFFF0F20010700100800400000500040A7
S315000037000803011000520040015F00100100000C88
S3150000371000000040011F001001000001000C0040E5
S315000037200003001001000001000D00400107001019
S315000037300100000100E07F400003001001001000BE
S3150000374000C07F40E0010310B0010310C001031068
S31500003750200003105400031030000F1070040310F3
S31500003760000807101000031046040310410503105B
S3150000377040070310000C0310400407104204031016
S3150000378044040310D0050310E0050B10F0050310E8
S315000037900F07071040090310000E0711400E031013
S315000037A0600E03106000071010040310B007071026
S315000037B080040310020000100300000100300540E1
S315000037C007030300000F00100A0020000000074056
S315000037D0000F001002000001002007400200001048
S315000037E00E000001008007403F1F1F1F0F0F0F0F25
S315000037F00707070707070000000300100100100075
S31500003800F08F074000030010040000010020044070
S3150000381000030010020000010040084000070010ED
S3150000382006000001005008400007001002000010CA
S3150000383000000540000700100200000400200640BA
S3150000384002000010020000020040064007070000C8
S31500003850000700110200000100E00440010300100F
S31500003860C00004000008044008030110000D0440D5
S31500003870040002100200000200C005402B2B0000CD
S315000038807F007F003F000F007F006F001F000F00CA
S31500003890040001100C00200000000440070B0B0B75
S315000038A00B03030303030303FFCFFFC7FFFFFFFF62
S315000038B0FF30FF30FFFFFFFFFFFFFFFFFFFFFF3877
S315000038C0FFFFFFFFFFFFFF00FF3F7F00FFFFE3015A
S315000038D0FFFF0307FF0003000400021001002000A1
S315000038E00010084003000000FFFFFF0F0300000068
S315000038F00003001001000002000000640117001020
S315000039000100001000000940001F00200100000215
S3150000391000000640010300100100000100440640BB
S3150000392001030010010000010045064001030010DC
S3150000393001000008005006400003001002000004C9
S3150000394000580640FFFFFFFFFFFFFFFFFFFFFFFFDF
S31500003950FFFFFFFFFFFFFFFFFFFFFFFFFFFFFFFF71
S31500003960FFFFFFFFFFFFFFFFFFFFFFFFFFFFFFFF61
S31500003970FFFFFFFFFFFFFFFFFFFFFFFFFFFFFFFF51
S31500003980FFFFFFFFFFFFFFFFFFFFFFFFFFFFFFFF41
S31500003990FFFFFFFFFFFFFFFF725ABC9E1CE00140C6
S315000039A0007004400470044008700440FFFFFFFFED
S315000039B0FFFFFF3636FFFF8EFFFFFFFFFF808D8183
S315000039C05F4953839FFFFFFFFFFFFFFFD0F4D6FF42
S315000039D0DCFFFFFFFFFFFFE5EEFFFFC34245466B3F
S315000039E08C8988FFFFFFFFFFFFFFFFFF4F6D82847B
S315000039F08685FFFF00050000010002000800FFFFAA
S31500003A00010000000000000000000000700000003F
S31500003A10143A000000800000000000000080000052
S31500003A2001000000008000000200000000400000CD
S31500003A3004000000004000000500000000400000F7
S31500003A400600000000800000080000000080000062
S31500003A5009000000004000000A000000008000008D
S31500003A600E000000008000000F00000000040106A8
S31500003A700001000000040106010100000004010627
S31500003A800201000000040106030100000004010415
S31500003A90040100000004010405010000000C0104FB
S31500003AA006010000040400000701000000000100F8
S31500003AB008010000000001000901000000000100EB
S31500003AC00A010000004000000B0100000000000099
S31500003AD00C010000040400000D010000000C0104AC
S31500003AE00202000000000000030200000000010CBA
S31500003AF0040200000000010C050200000000010C99
S31500003B00060200000000010C070200000000010987
S31500003B100C020000000001090D0200000000010077
S31500003B200003000000040104010300000004010476
S31500003B30020300000000000003030000000401046B
S31500003B40040300000004010405030000000C010446
S31500003B500603000004040000070300000000000044
S31500003B600803000004040000090300000000000030
S31500003B700A030000000000000B0300000000000024
S31500003B800C030000000401190D03000000040119D4
S31500003B900E030000000401190F030000004000009E
S31500003BA000040000000001100104000000000110E4
S31500003BB002040000000401170304000000040117BA
S31500003BC004040000000C011705040000000C011796
S31500003BD00604000000000113070400000000010CA9
S31500003BE0080400000000010C0904000000040104A0
S31500003BF00A040000000401040B040000000C010488
S31500003C000C040000040400000D0400000000010C78
S31500003C100E0400000000010C0F040000000C01114E
S31500003C2000050000000C011101050000000C011147
S31500003C3002050000000C011103050000000C011133
S31500003C4004050000000C011105050000000000003D
S31500003C50060500000000000007050000040400003F
S31500003C600006000004040000010600000404000031
S31500003C70020600000000000003060000000000002D
S31500003C8004060000000000000506000000040119FB
S31500003C9006060000000401190706000000000000E7
S31500003CA008060000000000000D06000000000000ED
S31500003CB00E060000000401190F060000000C011793
S31500003CC000070000000C011701070000000C011797
S31500003CD002070000000C011703070000000C011783
S31500003CE004070000000C0117050700000004010589
S31500003CF00607000000040105070700000404000091
S31500003D000008000004040000010800000004011976
S31500003D10020800000004011903080000000401194C
S31500003D20040800000404000006080000000C011945
S31500003D30000900000004011901090000000401192E
S31500003D400509000000040119060900000004011914
S31500003D500709000000040119080900000004011900
S31500003D60000A000000040119010A000000040119FC
S31500003D70080A000000040119090A000000040119DC
S31500003D800A0A000000000114000B000000000114E4
S30D00003D90010B00000000000019
S31500003D98D5060000B1060000000000000000000083
S31500003DA80000000000000000000000000000000005
S31500003DB800000000000000000000000000000000F5
S31500003DC800000000000000000000000000000000E5
S31500003DD800000000000000000000000000000000D5
S31500003DE800000000000000000000000000000000C5
S31500003DF800000000000000000000000000000000B5
S30D00003E080000000000000000AC
S31540120050FFFFFFFFFFFFFFFFFFFFFFFFFFFFFFFF58
S7050000308545
